{
  "_format": "hh-sol-artifact-1",
  "contractName": "ManaclesPair",
  "sourceName": "contracts/ManaclesPair.sol",
  "abi": [
    {
      "inputs": [],
      "stateMutability": "nonpayable",
      "type": "constructor"
    },
    {
      "anonymous": false,
      "inputs": [
        {
          "indexed": true,
          "internalType": "address",
          "name": "owner",
          "type": "address"
        },
        {
          "indexed": true,
          "internalType": "address",
          "name": "spender",
          "type": "address"
        },
        {
          "indexed": false,
          "internalType": "uint256",
          "name": "value",
          "type": "uint256"
        }
      ],
      "name": "Approval",
      "type": "event"
    },
    {
      "anonymous": false,
      "inputs": [
        {
          "indexed": true,
          "internalType": "address",
          "name": "sender",
          "type": "address"
        },
        {
          "indexed": false,
          "internalType": "uint256",
          "name": "amount0",
          "type": "uint256"
        },
        {
          "indexed": false,
          "internalType": "uint256",
          "name": "amount1",
          "type": "uint256"
        },
        {
          "indexed": true,
          "internalType": "address",
          "name": "to",
          "type": "address"
        }
      ],
      "name": "Burn",
      "type": "event"
    },
    {
      "anonymous": false,
      "inputs": [
        {
          "indexed": true,
          "internalType": "address",
          "name": "sender",
          "type": "address"
        },
        {
          "indexed": false,
          "internalType": "uint256",
          "name": "amount0",
          "type": "uint256"
        },
        {
          "indexed": false,
          "internalType": "uint256",
          "name": "amount1",
          "type": "uint256"
        }
      ],
      "name": "Mint",
      "type": "event"
    },
    {
      "anonymous": false,
      "inputs": [
        {
          "indexed": true,
          "internalType": "address",
          "name": "sender",
          "type": "address"
        },
        {
          "indexed": false,
          "internalType": "uint256",
          "name": "amount0In",
          "type": "uint256"
        },
        {
          "indexed": false,
          "internalType": "uint256",
          "name": "amount1In",
          "type": "uint256"
        },
        {
          "indexed": false,
          "internalType": "uint256",
          "name": "amount0Out",
          "type": "uint256"
        },
        {
          "indexed": false,
          "internalType": "uint256",
          "name": "amount1Out",
          "type": "uint256"
        },
        {
          "indexed": true,
          "internalType": "address",
          "name": "to",
          "type": "address"
        }
      ],
      "name": "Swap",
      "type": "event"
    },
    {
      "anonymous": false,
      "inputs": [
        {
          "indexed": false,
          "internalType": "uint112",
          "name": "reserve0",
          "type": "uint112"
        },
        {
          "indexed": false,
          "internalType": "uint112",
          "name": "reserve1",
          "type": "uint112"
        }
      ],
      "name": "Sync",
      "type": "event"
    },
    {
      "anonymous": false,
      "inputs": [
        {
          "indexed": true,
          "internalType": "address",
          "name": "from",
          "type": "address"
        },
        {
          "indexed": true,
          "internalType": "address",
          "name": "to",
          "type": "address"
        },
        {
          "indexed": false,
          "internalType": "uint256",
          "name": "value",
          "type": "uint256"
        }
      ],
      "name": "Transfer",
      "type": "event"
    },
    {
      "inputs": [],
      "name": "DOMAIN_SEPARATOR",
      "outputs": [
        {
          "internalType": "bytes32",
          "name": "",
          "type": "bytes32"
        }
      ],
      "stateMutability": "view",
      "type": "function"
    },
    {
      "inputs": [],
      "name": "MINIMUM_LIQUIDITY",
      "outputs": [
        {
          "internalType": "uint256",
          "name": "",
          "type": "uint256"
        }
      ],
      "stateMutability": "view",
      "type": "function"
    },
    {
      "inputs": [
        {
          "internalType": "address",
          "name": "owner",
          "type": "address"
        },
        {
          "internalType": "address",
          "name": "spender",
          "type": "address"
        }
      ],
      "name": "allowance",
      "outputs": [
        {
          "internalType": "uint256",
          "name": "",
          "type": "uint256"
        }
      ],
      "stateMutability": "view",
      "type": "function"
    },
    {
      "inputs": [
        {
          "internalType": "address",
          "name": "spender",
          "type": "address"
        },
        {
          "internalType": "uint256",
          "name": "amount",
          "type": "uint256"
        }
      ],
      "name": "approve",
      "outputs": [
        {
          "internalType": "bool",
          "name": "",
          "type": "bool"
        }
      ],
      "stateMutability": "nonpayable",
      "type": "function"
    },
    {
      "inputs": [
        {
          "internalType": "address",
          "name": "account",
          "type": "address"
        }
      ],
      "name": "balanceOf",
      "outputs": [
        {
          "internalType": "uint256",
          "name": "",
          "type": "uint256"
        }
      ],
      "stateMutability": "view",
      "type": "function"
    },
    {
      "inputs": [
        {
          "internalType": "address",
          "name": "to",
          "type": "address"
        }
      ],
      "name": "burn",
      "outputs": [
        {
          "internalType": "uint256",
          "name": "amount0",
          "type": "uint256"
        },
        {
          "internalType": "uint256",
          "name": "amount1",
          "type": "uint256"
        }
      ],
      "stateMutability": "nonpayable",
      "type": "function"
    },
    {
      "inputs": [],
      "name": "decimals",
      "outputs": [
        {
          "internalType": "uint8",
          "name": "",
          "type": "uint8"
        }
      ],
      "stateMutability": "view",
      "type": "function"
    },
    {
      "inputs": [
        {
          "internalType": "address",
          "name": "spender",
          "type": "address"
        },
        {
          "internalType": "uint256",
          "name": "subtractedValue",
          "type": "uint256"
        }
      ],
      "name": "decreaseAllowance",
      "outputs": [
        {
          "internalType": "bool",
          "name": "",
          "type": "bool"
        }
      ],
      "stateMutability": "nonpayable",
      "type": "function"
    },
    {
      "inputs": [],
      "name": "factory",
      "outputs": [
        {
          "internalType": "address",
          "name": "",
          "type": "address"
        }
      ],
      "stateMutability": "view",
      "type": "function"
    },
    {
      "inputs": [],
      "name": "getReserves",
      "outputs": [
        {
          "internalType": "uint112",
          "name": "_reserve0",
          "type": "uint112"
        },
        {
          "internalType": "uint112",
          "name": "_reserve1",
          "type": "uint112"
        },
        {
          "internalType": "uint32",
          "name": "_blockTimestampLast",
          "type": "uint32"
        }
      ],
      "stateMutability": "view",
      "type": "function"
    },
    {
      "inputs": [
        {
          "internalType": "address",
          "name": "spender",
          "type": "address"
        },
        {
          "internalType": "uint256",
          "name": "addedValue",
          "type": "uint256"
        }
      ],
      "name": "increaseAllowance",
      "outputs": [
        {
          "internalType": "bool",
          "name": "",
          "type": "bool"
        }
      ],
      "stateMutability": "nonpayable",
      "type": "function"
    },
    {
      "inputs": [
        {
          "internalType": "address",
          "name": "_token0",
          "type": "address"
        },
        {
          "internalType": "address",
          "name": "_token1",
          "type": "address"
        }
      ],
      "name": "initialize",
      "outputs": [],
      "stateMutability": "nonpayable",
      "type": "function"
    },
    {
      "inputs": [],
      "name": "kLast",
      "outputs": [
        {
          "internalType": "uint256",
          "name": "",
          "type": "uint256"
        }
      ],
      "stateMutability": "view",
      "type": "function"
    },
    {
      "inputs": [
        {
          "internalType": "address",
          "name": "to",
          "type": "address"
        }
      ],
      "name": "mint",
      "outputs": [
        {
          "internalType": "uint256",
          "name": "liquidity",
          "type": "uint256"
        }
      ],
      "stateMutability": "nonpayable",
      "type": "function"
    },
    {
      "inputs": [],
      "name": "name",
      "outputs": [
        {
          "internalType": "string",
          "name": "",
          "type": "string"
        }
      ],
      "stateMutability": "view",
      "type": "function"
    },
    {
      "inputs": [
        {
          "internalType": "address",
          "name": "owner",
          "type": "address"
        }
      ],
      "name": "nonces",
      "outputs": [
        {
          "internalType": "uint256",
          "name": "",
          "type": "uint256"
        }
      ],
      "stateMutability": "view",
      "type": "function"
    },
    {
      "inputs": [
        {
          "internalType": "address",
          "name": "owner",
          "type": "address"
        },
        {
          "internalType": "address",
          "name": "spender",
          "type": "address"
        },
        {
          "internalType": "uint256",
          "name": "value",
          "type": "uint256"
        },
        {
          "internalType": "uint256",
          "name": "deadline",
          "type": "uint256"
        },
        {
          "internalType": "uint8",
          "name": "v",
          "type": "uint8"
        },
        {
          "internalType": "bytes32",
          "name": "r",
          "type": "bytes32"
        },
        {
          "internalType": "bytes32",
          "name": "s",
          "type": "bytes32"
        }
      ],
      "name": "permit",
      "outputs": [],
      "stateMutability": "nonpayable",
      "type": "function"
    },
    {
      "inputs": [],
      "name": "price0CumulativeLast",
      "outputs": [
        {
          "internalType": "uint256",
          "name": "",
          "type": "uint256"
        }
      ],
      "stateMutability": "view",
      "type": "function"
    },
    {
      "inputs": [],
      "name": "price1CumulativeLast",
      "outputs": [
        {
          "internalType": "uint256",
          "name": "",
          "type": "uint256"
        }
      ],
      "stateMutability": "view",
      "type": "function"
    },
    {
      "inputs": [
        {
          "internalType": "address",
          "name": "to",
          "type": "address"
        }
      ],
      "name": "skim",
      "outputs": [],
      "stateMutability": "nonpayable",
      "type": "function"
    },
    {
      "inputs": [
        {
          "internalType": "uint256",
          "name": "amount0Out",
          "type": "uint256"
        },
        {
          "internalType": "uint256",
          "name": "amount1Out",
          "type": "uint256"
        },
        {
          "internalType": "address",
          "name": "to",
          "type": "address"
        },
        {
          "internalType": "bytes",
          "name": "data",
          "type": "bytes"
        }
      ],
      "name": "swap",
      "outputs": [],
      "stateMutability": "nonpayable",
      "type": "function"
    },
    {
      "inputs": [],
      "name": "symbol",
      "outputs": [
        {
          "internalType": "string",
          "name": "",
          "type": "string"
        }
      ],
      "stateMutability": "view",
      "type": "function"
    },
    {
      "inputs": [],
      "name": "sync",
      "outputs": [],
      "stateMutability": "nonpayable",
      "type": "function"
    },
    {
      "inputs": [],
      "name": "token0",
      "outputs": [
        {
          "internalType": "address",
          "name": "",
          "type": "address"
        }
      ],
      "stateMutability": "view",
      "type": "function"
    },
    {
      "inputs": [],
      "name": "token1",
      "outputs": [
        {
          "internalType": "address",
          "name": "",
          "type": "address"
        }
      ],
      "stateMutability": "view",
      "type": "function"
    },
    {
      "inputs": [],
      "name": "totalSupply",
      "outputs": [
        {
          "internalType": "uint256",
          "name": "",
          "type": "uint256"
        }
      ],
      "stateMutability": "view",
      "type": "function"
    },
    {
      "inputs": [
        {
          "internalType": "address",
          "name": "to",
          "type": "address"
        },
        {
          "internalType": "uint256",
          "name": "amount",
          "type": "uint256"
        }
      ],
      "name": "transfer",
      "outputs": [
        {
          "internalType": "bool",
          "name": "",
          "type": "bool"
        }
      ],
      "stateMutability": "nonpayable",
      "type": "function"
    },
    {
      "inputs": [
        {
          "internalType": "address",
          "name": "from",
          "type": "address"
        },
        {
          "internalType": "address",
          "name": "to",
          "type": "address"
        },
        {
          "internalType": "uint256",
          "name": "amount",
          "type": "uint256"
        }
      ],
      "name": "transferFrom",
      "outputs": [
        {
          "internalType": "bool",
          "name": "",
          "type": "bool"
        }
      ],
      "stateMutability": "nonpayable",
      "type": "function"
    }
  ],
  "bytecode": "0x6101406040526001600e553480156200001757600080fd5b50604051806040016040528060088152602001674d616e61636c657360c01b81525080604051806040016040528060018152602001603160f81b815250604051806040016040528060088152602001674d616e61636c657360c01b8152506040518060400160405280600481526020016309c9ea8960e31b8152508160039080519060200190620000aa92919062000171565b508051620000c090600490602084019062000171565b5050825160208085019190912083518483012060e08290526101008190524660a0818152604080517f8b73c3c69bb8fe3d512ecc4cf759cc79239f7b179b0ffacaa9a75d522b39400f81880181905281830187905260608201869052608082019490945230818401528151808203909301835260c0019052805194019390932091935091906080523060601b60c052610120525050600780546001600160a01b031916331790555062000254915050565b8280546200017f9062000217565b90600052602060002090601f016020900481019282620001a35760008555620001ee565b82601f10620001be57805160ff1916838001178555620001ee565b82800160010185558215620001ee579182015b82811115620001ee578251825591602001919060010190620001d1565b50620001fc92915062000200565b5090565b5b80821115620001fc576000815560010162000201565b600181811c908216806200022c57607f821691505b602082108114156200024e57634e487b7160e01b600052602260045260246000fd5b50919050565b60805160a05160c05160601c60e0516101005161012051612a55620002a76000396000611d3001526000611d7f01526000611d5a01526000611cb301526000611cdd01526000611d070152612a556000f3fe608060405234801561001057600080fd5b50600436106101c45760003560e01c806370a08231116100f9578063ba9a7a5611610097578063d21220a711610071578063d21220a7146103cf578063d505accf146103e2578063dd62ed3e146103f5578063fff6cae91461040857600080fd5b8063ba9a7a56146103a0578063bc25cf77146103a9578063c45a0155146103bc57600080fd5b806389afcb44116100d357806389afcb441461034a57806395d89b4114610372578063a457c2d71461037a578063a9059cbb1461038d57600080fd5b806370a08231146103055780637464fc3d1461032e5780637ecebe001461033757600080fd5b8063313ce56711610166578063485cc95511610140578063485cc955146102cd5780635909c0d5146102e05780635a3d5493146102e95780636a627842146102f257600080fd5b8063313ce567146102a35780633644e515146102b257806339509351146102ba57600080fd5b8063095ea7b3116101a2578063095ea7b3146102305780630dfe16811461025357806318160ddd1461027e57806323b872dd1461029057600080fd5b8063022c0d9f146101c957806306fdde03146101de5780630902f1ac146101fc575b600080fd5b6101dc6101d736600461271c565b610410565b005b6101e6610926565b6040516101f3919061281a565b60405180910390f35b6102046109b8565b604080516001600160701b03948516815293909216602084015263ffffffff16908201526060016101f3565b61024361023e3660046126b5565b6109e2565b60405190151581526020016101f3565b600854610266906001600160a01b031681565b6040516001600160a01b0390911681526020016101f3565b6002545b6040519081526020016101f3565b61024361029e3660046125fd565b6109fa565b604051601281526020016101f3565b610282610a1e565b6102436102c83660046126b5565b610a2d565b6101dc6102db3660046125c4565b610a4f565b610282600b5481565b610282600c5481565b61028261030036600461258a565b610acd565b61028261031336600461258a565b6001600160a01b031660009081526020819052604090205490565b610282600d5481565b61028261034536600461258a565b610db8565b61035d61035836600461258a565b610dd8565b604080519283526020830191909152016101f3565b6101e6611182565b6102436103883660046126b5565b611191565b61024361039b3660046126b5565b61120c565b6102826103e881565b6101dc6103b736600461258a565b61121a565b600754610266906001600160a01b031681565b600954610266906001600160a01b031681565b6101dc6103f036600461263e565b61133d565b6102826104033660046125c4565b6114a1565b6101dc6114cc565b600e5460011461043b5760405162461bcd60e51b81526004016104329061284d565b60405180910390fd5b6000600e558415158061044e5750600084115b6104a65760405162461bcd60e51b8152602060048201526024808201527f4d616e61636c65733a20494e53554646494349454e545f4f55545055545f414d60448201526313d5539560e21b6064820152608401610432565b6000806104b16109b8565b5091509150816001600160701b0316871080156104d65750806001600160701b031686105b6105225760405162461bcd60e51b815260206004820181905260248201527f4d616e61636c65733a20494e53554646494349454e545f4c49515549444954596044820152606401610432565b60085460095460009182916001600160a01b039182169190811690891682148015906105605750806001600160a01b0316896001600160a01b031614155b6105a35760405162461bcd60e51b81526020600482015260146024820152734d616e61636c65733a20494e56414c49445f544f60601b6044820152606401610432565b8a156105b4576105b4828a8d61160e565b89156105c5576105c5818a8c61160e565b86156106325760405163419f725360e11b81526001600160a01b038a169063833ee4a6906105ff9033908f908f908e908e906004016127ce565b600060405180830381600087803b15801561061957600080fd5b505af115801561062d573d6000803e3d6000fd5b505050505b6040516370a0823160e01b81523060048201526001600160a01b038316906370a082319060240160206040518083038186803b15801561067157600080fd5b505afa158015610685573d6000803e3d6000fd5b505050506040513d601f19601f820116820180604052508101906106a99190612703565b6040516370a0823160e01b81523060048201529094506001600160a01b038216906370a082319060240160206040518083038186803b1580156106eb57600080fd5b505afa1580156106ff573d6000803e3d6000fd5b505050506040513d601f19601f820116820180604052508101906107239190612703565b92505050600089856001600160701b031661073e9190612917565b831161074b576000610768565b61075e8a6001600160701b038716612917565b6107689084612917565b9050600061077f8a6001600160701b038716612917565b831161078c5760006107a9565b61079f8a6001600160701b038716612917565b6107a99084612917565b905060008211806107ba5750600081115b6108125760405162461bcd60e51b815260206004820152602360248201527f4d616e61636c65733a20494e53554646494349454e545f494e5055545f414d4f60448201526215539560ea1b6064820152608401610432565b6000610834610822846002611759565b61082e876103e8611759565b9061176c565b90506000610846610822846002611759565b905061086b620f42406108656001600160701b038b8116908b16611759565b90611759565b6108758383611759565b10156108b15760405162461bcd60e51b815260206004820152600b60248201526a4d616e61636c65733a204b60a81b6044820152606401610432565b50506108bf84848888611778565b60408051838152602081018390529081018c9052606081018b90526001600160a01b038a169033907fd78ad95fa46c994b6551d0da85fc275fe613ce37657fb8d5e3d130840159d8229060800160405180910390a350506001600e55505050505050505050565b6060600380546109359061297f565b80601f01602080910402602001604051908101604052809291908181526020018280546109619061297f565b80156109ae5780601f10610983576101008083540402835291602001916109ae565b820191906000526020600020905b81548152906001019060200180831161099157829003601f168201915b5050505050905090565b600a546001600160701b0380821692600160701b830490911691600160e01b900463ffffffff1690565b6000336109f0818585611963565b5060019392505050565b600033610a08858285611a88565b610a13858585611b02565b506001949350505050565b6000610a28611ca6565b905090565b6000336109f0818585610a4083836114a1565b610a4a9190612877565b611963565b6007546001600160a01b03163314610a9f5760405162461bcd60e51b815260206004820152601360248201527226b0b730b1b632b99d102327a92124a22222a760691b6044820152606401610432565b600880546001600160a01b039384166001600160a01b03199182161790915560098054929093169116179055565b6000600e54600114610af15760405162461bcd60e51b81526004016104329061284d565b6000600e81905580610b016109b8565b506008546040516370a0823160e01b81523060048201529294509092506000916001600160a01b03909116906370a082319060240160206040518083038186803b158015610b4e57600080fd5b505afa158015610b62573d6000803e3d6000fd5b505050506040513d601f19601f82011682018060405250810190610b869190612703565b6009546040516370a0823160e01b81523060048201529192506000916001600160a01b03909116906370a082319060240160206040518083038186803b158015610bcf57600080fd5b505afa158015610be3573d6000803e3d6000fd5b505050506040513d601f19601f82011682018060405250810190610c079190612703565b90506000610c1e836001600160701b03871661176c565b90506000610c35836001600160701b03871661176c565b90506000610c438787611dcd565b90506000610c5060025490565b905080610c8357610c6f6103e861082e610c6a8787611759565b611f25565b9850610c7e60006103e861200a565b610cca565b610cc76001600160701b038916610c9a8684611759565b610ca491906128b5565b6001600160701b038916610cb88685611759565b610cc291906128b5565b6120c9565b98505b60008911610d2a5760405162461bcd60e51b815260206004820152602760248201527f4d616e61636c65733a20494e53554646494349454e545f4c495155494449545960448201526617d3525395115160ca1b6064820152608401610432565b610d348a8a61200a565b610d4086868a8a611778565b8115610d6a57600a54610d66906001600160701b0380821691600160701b900416611759565b600d555b604080518581526020810185905233917f4c209b5fc8ad50758f13e2e1088ba56a560dff690a1c6fef26394f4c03821c4f910160405180910390a250506001600e5550949695505050505050565b6001600160a01b0381166000908152600560205260408120545b92915050565b600080600e54600114610dfd5760405162461bcd60e51b81526004016104329061284d565b6000600e81905580610e0d6109b8565b506008546009546040516370a0823160e01b81523060048201529395509193506001600160a01b039081169291169060009083906370a082319060240160206040518083038186803b158015610e6257600080fd5b505afa158015610e76573d6000803e3d6000fd5b505050506040513d601f19601f82011682018060405250810190610e9a9190612703565b6040516370a0823160e01b81523060048201529091506000906001600160a01b038416906370a082319060240160206040518083038186803b158015610edf57600080fd5b505afa158015610ef3573d6000803e3d6000fd5b505050506040513d601f19601f82011682018060405250810190610f179190612703565b30600090815260208190526040812054919250610f348888611dcd565b90506000610f4160025490565b905080610f4e8487611759565b610f5891906128b5565b9a5080610f658486611759565b610f6f91906128b5565b995060008b118015610f81575060008a115b610fdd5760405162461bcd60e51b815260206004820152602760248201527f4d616e61636c65733a20494e53554646494349454e545f4c495155494449545960448201526617d0955493915160ca1b6064820152608401610432565b610fe730846120df565b610ff2878d8d61160e565b610ffd868d8c61160e565b6040516370a0823160e01b81523060048201526001600160a01b038816906370a082319060240160206040518083038186803b15801561103c57600080fd5b505afa158015611050573d6000803e3d6000fd5b505050506040513d601f19601f820116820180604052508101906110749190612703565b6040516370a0823160e01b81523060048201529095506001600160a01b038716906370a082319060240160206040518083038186803b1580156110b657600080fd5b505afa1580156110ca573d6000803e3d6000fd5b505050506040513d601f19601f820116820180604052508101906110ee9190612703565b93506110fc85858b8b611778565b811561112657600a54611122906001600160701b0380821691600160701b900416611759565b600d555b604080518c8152602081018c90526001600160a01b038e169133917fdccd412f0b1252819cb1fd330b93224ca42612892bb3f4f789976e6d81936496910160405180910390a35050505050505050506001600e81905550915091565b6060600480546109359061297f565b6000338161119f82866114a1565b9050838110156111ff5760405162461bcd60e51b815260206004820152602560248201527f45524332303a2064656372656173656420616c6c6f77616e63652062656c6f77604482015264207a65726f60d81b6064820152608401610432565b610a138286868403611963565b6000336109f0818585611b02565b600e5460011461123c5760405162461bcd60e51b81526004016104329061284d565b6000600e55600854600954600a546040516370a0823160e01b81523060048201526001600160a01b0393841693909216916112e691849186916112e1916001600160701b039091169084906370a08231906024015b60206040518083038186803b1580156112a957600080fd5b505afa1580156112bd573d6000803e3d6000fd5b505050506040513d601f19601f8201168201806040525081019061082e9190612703565b61160e565b600a546040516370a0823160e01b815230600482015261133391839186916112e191600160701b9091046001600160701b0316906001600160a01b038516906370a0823190602401611291565b50506001600e5550565b8342111561138d5760405162461bcd60e51b815260206004820152601d60248201527f45524332305065726d69743a206578706972656420646561646c696e650000006044820152606401610432565b60007f6e71edae12b1b97f4d1f60370fef10105fa2faae0126114a169c64845d6126c98888886113bc8c612209565b6040805160208101969096526001600160a01b0394851690860152929091166060840152608083015260a082015260c0810186905260e001604051602081830303815290604052805190602001209050600061141782612231565b905060006114278287878761227f565b9050896001600160a01b0316816001600160a01b03161461148a5760405162461bcd60e51b815260206004820152601e60248201527f45524332305065726d69743a20696e76616c6964207369676e617475726500006044820152606401610432565b6114958a8a8a611963565b50505050505050505050565b6001600160a01b03918216600090815260016020908152604080832093909416825291909152205490565b600e546001146114ee5760405162461bcd60e51b81526004016104329061284d565b6000600e556008546040516370a0823160e01b8152306004820152611607916001600160a01b0316906370a082319060240160206040518083038186803b15801561153857600080fd5b505afa15801561154c573d6000803e3d6000fd5b505050506040513d601f19601f820116820180604052508101906115709190612703565b6009546040516370a0823160e01b81523060048201526001600160a01b03909116906370a082319060240160206040518083038186803b1580156115b357600080fd5b505afa1580156115c7573d6000803e3d6000fd5b505050506040513d601f19601f820116820180604052508101906115eb9190612703565b600a546001600160701b0380821691600160701b900416611778565b6001600e55565b604080518082018252601981527f7472616e7366657228616464726573732c75696e74323536290000000000000060209182015281516001600160a01b0385811660248301526044808301869052845180840390910181526064909201845291810180516001600160e01b031663a9059cbb60e01b1790529151600092839287169161169a91906127b2565b6000604051808303816000865af19150503d80600081146116d7576040519150601f19603f3d011682016040523d82523d6000602084013e6116dc565b606091505b509150915081801561170657508051158061170657508080602001905181019061170691906126e1565b6117525760405162461bcd60e51b815260206004820152601960248201527f4d616e61636c65733a205452414e534645525f4641494c4544000000000000006044820152606401610432565b5050505050565b600061176582846128f8565b9392505050565b60006117658284612917565b6001600160701b03841180159061179657506001600160701b038311155b6117d75760405162461bcd60e51b81526020600482015260126024820152714d616e61636c65733a204f564552464c4f5760701b6044820152606401610432565b60006117e8640100000000426129b4565b600a5490915060009061180890600160e01b900463ffffffff168361292e565b905060008163ffffffff1611801561182857506001600160701b03841615155b801561183c57506001600160701b03831615155b156118cb578063ffffffff1661186485611855866122a7565b6001600160e01b0316906122c0565b6001600160e01b031661187791906128f8565b600b60008282546118889190612877565b909155505063ffffffff81166118a184611855876122a7565b6001600160e01b03166118b491906128f8565b600c60008282546118c59190612877565b90915550505b600a805463ffffffff8416600160e01b026001600160e01b036001600160701b03898116600160701b9081026001600160e01b03199095168c83161794909417918216831794859055604080519382169282169290921783529290930490911660208201527f1c411e9a96e071241c2f21f7726b17ae89e3cab4c78be50e062b03a9fffbbad1910160405180910390a1505050505050565b6001600160a01b0383166119c55760405162461bcd60e51b8152602060048201526024808201527f45524332303a20617070726f76652066726f6d20746865207a65726f206164646044820152637265737360e01b6064820152608401610432565b6001600160a01b038216611a265760405162461bcd60e51b815260206004820152602260248201527f45524332303a20617070726f766520746f20746865207a65726f206164647265604482015261737360f01b6064820152608401610432565b6001600160a01b0383811660008181526001602090815260408083209487168084529482529182902085905590518481527f8c5be1e5ebec7d5bd14f71427d1e84f3dd0314c0f7b2291e5b200ac8c7c3b92591015b60405180910390a3505050565b6000611a9484846114a1565b90506000198114611afc5781811015611aef5760405162461bcd60e51b815260206004820152601d60248201527f45524332303a20696e73756666696369656e7420616c6c6f77616e63650000006044820152606401610432565b611afc8484848403611963565b50505050565b6001600160a01b038316611b665760405162461bcd60e51b815260206004820152602560248201527f45524332303a207472616e736665722066726f6d20746865207a65726f206164604482015264647265737360d81b6064820152608401610432565b6001600160a01b038216611bc85760405162461bcd60e51b815260206004820152602360248201527f45524332303a207472616e7366657220746f20746865207a65726f206164647260448201526265737360e81b6064820152608401610432565b6001600160a01b03831660009081526020819052604090205481811015611c405760405162461bcd60e51b815260206004820152602660248201527f45524332303a207472616e7366657220616d6f756e7420657863656564732062604482015265616c616e636560d01b6064820152608401610432565b6001600160a01b03848116600081815260208181526040808320878703905593871680835291849020805487019055925185815290927fddf252ad1be2c89b69c2b068fc378daa952ba7f163c4a11628f55a4df523b3ef910160405180910390a3611afc565b6000306001600160a01b037f000000000000000000000000000000000000000000000000000000000000000016148015611cff57507f000000000000000000000000000000000000000000000000000000000000000046145b15611d2957507f000000000000000000000000000000000000000000000000000000000000000090565b50604080517f00000000000000000000000000000000000000000000000000000000000000006020808301919091527f0000000000000000000000000000000000000000000000000000000000000000828401527f000000000000000000000000000000000000000000000000000000000000000060608301524660808301523060a0808401919091528351808403909101815260c0909201909252805191012090565b600080600760009054906101000a90046001600160a01b03166001600160a01b031663017e7e586040518163ffffffff1660e01b815260040160206040518083038186803b158015611e1e57600080fd5b505afa158015611e32573d6000803e3d6000fd5b505050506040513d601f19601f82011682018060405250810190611e5691906125a7565b600d546001600160a01b038216151593509091506000611e7560025490565b90508315611f10578115611f0b576000611e9e610c6a6001600160701b03898116908916611759565b90506000611eab84611f25565b905080821115611f08576000611ecb611ec4848461176c565b8590611759565b90506000611ee483611ede866005611759565b906122d5565b90506000611ef282846128b5565b90508015611f0457611f04888261200a565b5050505b50505b611f1c565b8115611f1c576000600d555b50505092915050565b600081611f3457506000919050565b60006001611f41846122e1565b901c6001901b90506001818481611f5a57611f5a6129de565b048201901c90506001818481611f7257611f726129de565b048201901c90506001818481611f8a57611f8a6129de565b048201901c90506001818481611fa257611fa26129de565b048201901c90506001818481611fba57611fba6129de565b048201901c90506001818481611fd257611fd26129de565b048201901c90506001818481611fea57611fea6129de565b048201901c905061176581828581612004576120046129de565b046120c9565b6001600160a01b0382166120605760405162461bcd60e51b815260206004820152601f60248201527f45524332303a206d696e7420746f20746865207a65726f2061646472657373006044820152606401610432565b80600260008282546120729190612877565b90915550506001600160a01b038216600081815260208181526040808320805486019055518481527fddf252ad1be2c89b69c2b068fc378daa952ba7f163c4a11628f55a4df523b3ef910160405180910390a35050565b60008183106120d85781611765565b5090919050565b6001600160a01b03821661213f5760405162461bcd60e51b815260206004820152602160248201527f45524332303a206275726e2066726f6d20746865207a65726f206164647265736044820152607360f81b6064820152608401610432565b6001600160a01b038216600090815260208190526040902054818110156121b35760405162461bcd60e51b815260206004820152602260248201527f45524332303a206275726e20616d6f756e7420657863656564732062616c616e604482015261636560f01b6064820152608401610432565b6001600160a01b0383166000818152602081815260408083208686039055600280548790039055518581529192917fddf252ad1be2c89b69c2b068fc378daa952ba7f163c4a11628f55a4df523b3ef9101611a7b565b6001600160a01b03811660009081526005602052604090208054600181018255905b50919050565b6000610dd261223e611ca6565b8360405161190160f01b6020820152602281018390526042810182905260009060620160405160208183030381529060405280519060200120905092915050565b600080600061229087878787612375565b9150915061229d81612439565b5095945050505050565b6000610dd2600160701b6001600160701b0384166128c9565b60006117656001600160701b0383168461288f565b60006117658284612877565b600080608083901c156122f657608092831c92015b604083901c1561230857604092831c92015b602083901c1561231a57602092831c92015b601083901c1561232c57601092831c92015b600883901c1561233e57600892831c92015b600483901c1561235057600492831c92015b600283901c1561236257600292831c92015b600183901c15610dd25760010192915050565b6000807f7fffffffffffffffffffffffffffffff5d576e7357a4501ddfe92f46681b20a08311156123ac5750600090506003612430565b6040805160008082526020820180845289905260ff881692820192909252606081018690526080810185905260019060a0016020604051602081039080840390855afa158015612400573d6000803e3d6000fd5b5050604051601f1901519150506001600160a01b03811661242957600060019250925050612430565b9150600090505b94509492505050565b600081600481111561244d5761244d6129f4565b14156124565750565b600181600481111561246a5761246a6129f4565b14156124b85760405162461bcd60e51b815260206004820152601860248201527f45434453413a20696e76616c6964207369676e617475726500000000000000006044820152606401610432565b60028160048111156124cc576124cc6129f4565b141561251a5760405162461bcd60e51b815260206004820152601f60248201527f45434453413a20696e76616c6964207369676e6174757265206c656e677468006044820152606401610432565b600381600481111561252e5761252e6129f4565b14156125875760405162461bcd60e51b815260206004820152602260248201527f45434453413a20696e76616c6964207369676e6174757265202773272076616c604482015261756560f01b6064820152608401610432565b50565b60006020828403121561259c57600080fd5b813561176581612a0a565b6000602082840312156125b957600080fd5b815161176581612a0a565b600080604083850312156125d757600080fd5b82356125e281612a0a565b915060208301356125f281612a0a565b809150509250929050565b60008060006060848603121561261257600080fd5b833561261d81612a0a565b9250602084013561262d81612a0a565b929592945050506040919091013590565b600080600080600080600060e0888a03121561265957600080fd5b873561266481612a0a565b9650602088013561267481612a0a565b95506040880135945060608801359350608088013560ff8116811461269857600080fd5b9699959850939692959460a0840135945060c09093013592915050565b600080604083850312156126c857600080fd5b82356126d381612a0a565b946020939093013593505050565b6000602082840312156126f357600080fd5b8151801515811461176557600080fd5b60006020828403121561271557600080fd5b5051919050565b60008060008060006080868803121561273457600080fd5b8535945060208601359350604086013561274d81612a0a565b9250606086013567ffffffffffffffff8082111561276a57600080fd5b818801915088601f83011261277e57600080fd5b81358181111561278d57600080fd5b89602082850101111561279f57600080fd5b9699959850939650602001949392505050565b600082516127c4818460208701612953565b9190910192915050565b60018060a01b038616815284602082015283604082015260806060820152816080820152818360a0830137600081830160a090810191909152601f909201601f19160101949350505050565b6020815260008251806020840152612839816040850160208701612953565b601f01601f19169190910160400192915050565b60208082526010908201526f13585b9858db195cce881313d0d2d15160821b604082015260600190565b6000821982111561288a5761288a6129c8565b500190565b60006001600160e01b03838116806128a9576128a96129de565b92169190910492915050565b6000826128c4576128c46129de565b500490565b60006001600160e01b03828116848216811515828404821116156128ef576128ef6129c8565b02949350505050565b6000816000190483118215151615612912576129126129c8565b500290565b600082821015612929576129296129c8565b500390565b600063ffffffff8381169083168181101561294b5761294b6129c8565b039392505050565b60005b8381101561296e578181015183820152602001612956565b83811115611afc5750506000910152565b600181811c9082168061299357607f821691505b6020821081141561222b57634e487b7160e01b600052602260045260246000fd5b6000826129c3576129c36129de565b500690565b634e487b7160e01b600052601160045260246000fd5b634e487b7160e01b600052601260045260246000fd5b634e487b7160e01b600052602160045260246000fd5b6001600160a01b038116811461258757600080fdfea264697066735822122035da4626aa7d5d8249b56c4e718892e876560c5c32f034e5e0e5b389642c047264736f6c63430008070033",
  "linkReferences": {},
  "deployedLinkReferences": {}
}